6700150026700250530611201700000008000005567170000660002300100003148M S  SAGAR MARKE         
6700150020000250000611201700000189954006378220000004217160100003149K V R VEHICLES           
6700150026700250070611201700000045600008840270000340060290100003150K V R VEHICLES           
6700150026700250130611201700000010000004575120000290083310100003151To clearing              
5000150014030250080611201700000219893005571160000560003300100003156SAI VASU DISTRIB         
5000150014030250080611201700000185918005571170000560003300100003157SAI VASU DISTRIB         
5000150014030250080611201700000192658005571180000560003300100003158SAI VASU DISTRIB         
5000150014030250080611201700000143919005571190000560003300100003159SAI VASU DISTRIB         
6700151026700251060611201700000078629008537000000360039300100003160GEETHA MEDILINES         
6700151026700251060611201700000010000003587790000350031300100003161GOPINATH STATION         
6700151026700251060611201700000023213003588750000350031300100003162GOPINATH STATION         
6700151026700251060611201700000010000003587930000350031300100003163GOPINATH STORES          
6700151026700251060611201700000057500002554180000290068310100003164MUNEER                   
6700151020000250000611201700000125700006671060000009600160100003165TOPCO FURNITURE          
5730153025770251040611201700000060997001787910000350034300100003166G V N MARKETING          
5730153020000250000611201700000006799008720460000000000160100003168INDIAN EMPLOYMEN         
5730153020000250000611201700000029302008720490000000000160100003169INDIAN EMPLOYMEN         
5730153020000250000611201700000012493008720470000000000160100003170INDIAN EMPLOYMEN         
5730153020000250000611201700000028557008720510000000000160100003171INDIAN EMPLOYMEN         
5730153020000250000611201700000029140007190080000000000160100003172INDIAN EMPLOYMEN         
5730153020000250000611201700000014570007190070000000000160100003173INDIAN EMPLOYMEN         
5730153020000250000611201700000003400007190060000000000160100003174INDIAN EMPLOYMEN         
